{
  "_format": "hh-sol-artifact-1",
  "contractName": "SupplyChainTracker",
  "sourceName": "contracts/SupplyChainTracker.sol",
  "abi": [
    {
      "inputs": [],
      "stateMutability": "nonpayable",
      "type": "constructor"
    },
    {
      "anonymous": false,
      "inputs": [
        {
          "indexed": false,
          "internalType": "uint256",
          "name": "shipmentId",
          "type": "uint256"
        },
        {
          "indexed": true,
          "internalType": "address",
          "name": "seller",
          "type": "address"
        }
      ],
      "name": "FundWithdrawn",
      "type": "event"
    },
    {
      "anonymous": false,
      "inputs": [
        {
          "indexed": false,
          "internalType": "uint256",
          "name": "shipmentId",
          "type": "uint256"
        },
        {
          "indexed": true,
          "internalType": "address",
          "name": "user",
          "type": "address"
        }
      ],
      "name": "ShipmentCancelled",
      "type": "event"
    },
    {
      "anonymous": false,
      "inputs": [
        {
          "indexed": false,
          "internalType": "uint256",
          "name": "shipmentId",
          "type": "uint256"
        },
        {
          "indexed": true,
          "internalType": "address",
          "name": "seller",
          "type": "address"
        },
        {
          "indexed": true,
          "internalType": "address",
          "name": "buyer",
          "type": "address"
        },
        {
          "indexed": false,
          "internalType": "uint256",
          "name": "price",
          "type": "uint256"
        }
      ],
      "name": "ShipmentCreated",
      "type": "event"
    },
    {
      "anonymous": false,
      "inputs": [
        {
          "indexed": false,
          "internalType": "uint256",
          "name": "shipmentId",
          "type": "uint256"
        },
        {
          "indexed": true,
          "internalType": "address",
          "name": "buyer",
          "type": "address"
        },
        {
          "indexed": false,
          "internalType": "uint256",
          "name": "timestamp",
          "type": "uint256"
        }
      ],
      "name": "ShipmentDelivered",
      "type": "event"
    },
    {
      "anonymous": false,
      "inputs": [
        {
          "indexed": false,
          "internalType": "uint256",
          "name": "shipmentId",
          "type": "uint256"
        },
        {
          "indexed": true,
          "internalType": "address",
          "name": "seller",
          "type": "address"
        },
        {
          "indexed": false,
          "internalType": "uint256",
          "name": "timestamp",
          "type": "uint256"
        }
      ],
      "name": "ShipmentDispatched",
      "type": "event"
    },
    {
      "anonymous": false,
      "inputs": [
        {
          "indexed": false,
          "internalType": "uint256",
          "name": "shipmentId",
          "type": "uint256"
        },
        {
          "indexed": true,
          "internalType": "address",
          "name": "seller",
          "type": "address"
        },
        {
          "indexed": false,
          "internalType": "uint256",
          "name": "timestamp",
          "type": "uint256"
        }
      ],
      "name": "ShipmentOnRoute",
      "type": "event"
    },
    {
      "anonymous": false,
      "inputs": [
        {
          "indexed": false,
          "internalType": "uint256",
          "name": "shipmentId",
          "type": "uint256"
        },
        {
          "indexed": true,
          "internalType": "address",
          "name": "buyer",
          "type": "address"
        },
        {
          "indexed": true,
          "internalType": "address",
          "name": "seller",
          "type": "address"
        },
        {
          "indexed": false,
          "internalType": "uint256",
          "name": "amount",
          "type": "uint256"
        }
      ],
      "name": "ShipmentPaid",
      "type": "event"
    },
    {
      "stateMutability": "payable",
      "type": "fallback"
    },
    {
      "inputs": [
        {
          "internalType": "uint256",
          "name": "_shipmentId",
          "type": "uint256"
        }
      ],
      "name": "cancelShipment",
      "outputs": [],
      "stateMutability": "nonpayable",
      "type": "function"
    },
    {
      "inputs": [
        {
          "internalType": "uint256",
          "name": "_shipmentId",
          "type": "uint256"
        }
      ],
      "name": "completeShipment",
      "outputs": [],
      "stateMutability": "nonpayable",
      "type": "function"
    },
    {
      "inputs": [
        {
          "internalType": "address payable",
          "name": "_buyer",
          "type": "address"
        },
        {
          "internalType": "uint256",
          "name": "_pickUpTime",
          "type": "uint256"
        },
        {
          "internalType": "uint256",
          "name": "_distance",
          "type": "uint256"
        },
        {
          "internalType": "uint256",
          "name": "_price",
          "type": "uint256"
        }
      ],
      "name": "createShipment",
      "outputs": [],
      "stateMutability": "nonpayable",
      "type": "function"
    },
    {
      "inputs": [
        {
          "internalType": "uint256",
          "name": "_shipmentId",
          "type": "uint256"
        }
      ],
      "name": "dispatchShipment",
      "outputs": [],
      "stateMutability": "nonpayable",
      "type": "function"
    },
    {
      "inputs": [],
      "name": "getAllShipments",
      "outputs": [
        {
          "components": [
            {
              "internalType": "uint256",
              "name": "id",
              "type": "uint256"
            },
            {
              "internalType": "address payable",
              "name": "seller",
              "type": "address"
            },
            {
              "internalType": "address payable",
              "name": "buyer",
              "type": "address"
            },
            {
              "internalType": "uint256",
              "name": "pickUpTime",
              "type": "uint256"
            },
            {
              "internalType": "uint256",
              "name": "dispatchTime",
              "type": "uint256"
            },
            {
              "internalType": "uint256",
              "name": "onRouteTime",
              "type": "uint256"
            },
            {
              "internalType": "uint256",
              "name": "deliveryTime",
              "type": "uint256"
            },
            {
              "internalType": "uint256",
              "name": "distance",
              "type": "uint256"
            },
            {
              "internalType": "uint256",
              "name": "price",
              "type": "uint256"
            },
            {
              "internalType": "enum SupplyChainTracker.ShipmentStatus",
              "name": "status",
              "type": "uint8"
            },
            {
              "internalType": "bool",
              "name": "isPaid",
              "type": "bool"
            }
          ],
          "internalType": "struct SupplyChainTracker.Shipment[]",
          "name": "",
          "type": "tuple[]"
        }
      ],
      "stateMutability": "view",
      "type": "function"
    },
    {
      "inputs": [
        {
          "internalType": "uint256",
          "name": "_shipmentId",
          "type": "uint256"
        }
      ],
      "name": "getShipmentById",
      "outputs": [
        {
          "components": [
            {
              "internalType": "uint256",
              "name": "id",
              "type": "uint256"
            },
            {
              "internalType": "address payable",
              "name": "seller",
              "type": "address"
            },
            {
              "internalType": "address payable",
              "name": "buyer",
              "type": "address"
            },
            {
              "internalType": "uint256",
              "name": "pickUpTime",
              "type": "uint256"
            },
            {
              "internalType": "uint256",
              "name": "dispatchTime",
              "type": "uint256"
            },
            {
              "internalType": "uint256",
              "name": "onRouteTime",
              "type": "uint256"
            },
            {
              "internalType": "uint256",
              "name": "deliveryTime",
              "type": "uint256"
            },
            {
              "internalType": "uint256",
              "name": "distance",
              "type": "uint256"
            },
            {
              "internalType": "uint256",
              "name": "price",
              "type": "uint256"
            },
            {
              "internalType": "enum SupplyChainTracker.ShipmentStatus",
              "name": "status",
              "type": "uint8"
            },
            {
              "internalType": "bool",
              "name": "isPaid",
              "type": "bool"
            }
          ],
          "internalType": "struct SupplyChainTracker.Shipment",
          "name": "",
          "type": "tuple"
        }
      ],
      "stateMutability": "view",
      "type": "function"
    },
    {
      "inputs": [],
      "name": "getShipmentsOfBuyer",
      "outputs": [
        {
          "components": [
            {
              "internalType": "uint256",
              "name": "id",
              "type": "uint256"
            },
            {
              "internalType": "address payable",
              "name": "seller",
              "type": "address"
            },
            {
              "internalType": "address payable",
              "name": "buyer",
              "type": "address"
            },
            {
              "internalType": "uint256",
              "name": "pickUpTime",
              "type": "uint256"
            },
            {
              "internalType": "uint256",
              "name": "dispatchTime",
              "type": "uint256"
            },
            {
              "internalType": "uint256",
              "name": "onRouteTime",
              "type": "uint256"
            },
            {
              "internalType": "uint256",
              "name": "deliveryTime",
              "type": "uint256"
            },
            {
              "internalType": "uint256",
              "name": "distance",
              "type": "uint256"
            },
            {
              "internalType": "uint256",
              "name": "price",
              "type": "uint256"
            },
            {
              "internalType": "enum SupplyChainTracker.ShipmentStatus",
              "name": "status",
              "type": "uint8"
            },
            {
              "internalType": "bool",
              "name": "isPaid",
              "type": "bool"
            }
          ],
          "internalType": "struct SupplyChainTracker.Shipment[]",
          "name": "",
          "type": "tuple[]"
        }
      ],
      "stateMutability": "view",
      "type": "function"
    },
    {
      "inputs": [],
      "name": "getShipmentsOfSeller",
      "outputs": [
        {
          "components": [
            {
              "internalType": "uint256",
              "name": "id",
              "type": "uint256"
            },
            {
              "internalType": "address payable",
              "name": "seller",
              "type": "address"
            },
            {
              "internalType": "address payable",
              "name": "buyer",
              "type": "address"
            },
            {
              "internalType": "uint256",
              "name": "pickUpTime",
              "type": "uint256"
            },
            {
              "internalType": "uint256",
              "name": "dispatchTime",
              "type": "uint256"
            },
            {
              "internalType": "uint256",
              "name": "onRouteTime",
              "type": "uint256"
            },
            {
              "internalType": "uint256",
              "name": "deliveryTime",
              "type": "uint256"
            },
            {
              "internalType": "uint256",
              "name": "distance",
              "type": "uint256"
            },
            {
              "internalType": "uint256",
              "name": "price",
              "type": "uint256"
            },
            {
              "internalType": "enum SupplyChainTracker.ShipmentStatus",
              "name": "status",
              "type": "uint8"
            },
            {
              "internalType": "bool",
              "name": "isPaid",
              "type": "bool"
            }
          ],
          "internalType": "struct SupplyChainTracker.Shipment[]",
          "name": "",
          "type": "tuple[]"
        }
      ],
      "stateMutability": "view",
      "type": "function"
    },
    {
      "inputs": [],
      "name": "getTotalShipmentCounts",
      "outputs": [
        {
          "internalType": "uint256",
          "name": "",
          "type": "uint256"
        }
      ],
      "stateMutability": "view",
      "type": "function"
    },
    {
      "inputs": [
        {
          "internalType": "uint256",
          "name": "_shipmentId",
          "type": "uint256"
        }
      ],
      "name": "markOnRoute",
      "outputs": [],
      "stateMutability": "nonpayable",
      "type": "function"
    },
    {
      "inputs": [
        {
          "internalType": "uint256",
          "name": "_shipmentId",
          "type": "uint256"
        }
      ],
      "name": "payShipment",
      "outputs": [],
      "stateMutability": "payable",
      "type": "function"
    },
    {
      "inputs": [],
      "name": "shipmentCount",
      "outputs": [
        {
          "internalType": "uint256",
          "name": "",
          "type": "uint256"
        }
      ],
      "stateMutability": "view",
      "type": "function"
    },
    {
      "inputs": [
        {
          "internalType": "uint256",
          "name": "",
          "type": "uint256"
        }
      ],
      "name": "shipments",
      "outputs": [
        {
          "internalType": "uint256",
          "name": "id",
          "type": "uint256"
        },
        {
          "internalType": "address payable",
          "name": "seller",
          "type": "address"
        },
        {
          "internalType": "address payable",
          "name": "buyer",
          "type": "address"
        },
        {
          "internalType": "uint256",
          "name": "pickUpTime",
          "type": "uint256"
        },
        {
          "internalType": "uint256",
          "name": "dispatchTime",
          "type": "uint256"
        },
        {
          "internalType": "uint256",
          "name": "onRouteTime",
          "type": "uint256"
        },
        {
          "internalType": "uint256",
          "name": "deliveryTime",
          "type": "uint256"
        },
        {
          "internalType": "uint256",
          "name": "distance",
          "type": "uint256"
        },
        {
          "internalType": "uint256",
          "name": "price",
          "type": "uint256"
        },
        {
          "internalType": "enum SupplyChainTracker.ShipmentStatus",
          "name": "status",
          "type": "uint8"
        },
        {
          "internalType": "bool",
          "name": "isPaid",
          "type": "bool"
        }
      ],
      "stateMutability": "view",
      "type": "function"
    },
    {
      "inputs": [
        {
          "internalType": "uint256",
          "name": "_shipmentId",
          "type": "uint256"
        }
      ],
      "name": "withdrawFund",
      "outputs": [],
      "stateMutability": "nonpayable",
      "type": "function"
    },
    {
      "inputs": [
        {
          "internalType": "address",
          "name": "",
          "type": "address"
        },
        {
          "internalType": "uint256",
          "name": "",
          "type": "uint256"
        }
      ],
      "name": "withdrawnFundsBySeller",
      "outputs": [
        {
          "internalType": "bool",
          "name": "",
          "type": "bool"
        }
      ],
      "stateMutability": "view",
      "type": "function"
    },
    {
      "stateMutability": "payable",
      "type": "receive"
    }
  ],
  "bytecode": "0x6080604052348015600f57600080fd5b50600080819055506130d1806100266000396000f3fe6080604052600436106100ec5760003560e01c806379f8176e1161008a578063c525ddc111610059578063c525ddc114610357578063cbc4b18114610382578063e89e2bfe146103ab578063f15456b5146103e85761012c565b806379f8176e146102af5780637faa7bc7146102da578063a4ece96814610303578063aace20b71461032c5761012c565b80632ac08a93116100c65780632ac08a93146101d7578063472150911461021e578063494dad6c1461025b5780634a47f4f2146102865761012c565b80630cee1725146101675780631be93619146101905780631fa71fc0146101bb5761012c565b3661012c576040517f08c379a0000000000000000000000000000000000000000000000000000000008152600401610123906120f7565b60405180910390fd5b6040517f08c379a000000000000000000000000000000000000000000000000000000000815260040161015e906120f7565b60405180910390fd5b34801561017357600080fd5b5061018e60048036038101906101899190612152565b610411565b005b34801561019c57600080fd5b506101a56107d5565b6040516101b2919061218e565b60405180910390f35b6101d560048036038101906101d09190612152565b6107de565b005b3480156101e357600080fd5b506101fe60048036038101906101f99190612152565b610a46565b6040516102159b9a9998979695949392919061227c565b60405180910390f35b34801561022a57600080fd5b5061024560048036038101906102409190612365565b610afa565b60405161025291906123a5565b60405180910390f35b34801561026757600080fd5b50610270610b29565b60405161027d919061258d565b60405180910390f35b34801561029257600080fd5b506102ad60048036038101906102a89190612152565b610d40565b005b3480156102bb57600080fd5b506102c4610eeb565b6040516102d1919061258d565b60405180910390f35b3480156102e657600080fd5b5061030160048036038101906102fc9190612152565b61120d565b005b34801561030f57600080fd5b5061032a60048036038101906103259190612152565b611591565b005b34801561033857600080fd5b5061034161173c565b60405161034e919061218e565b60405180910390f35b34801561036357600080fd5b5061036c611742565b604051610379919061258d565b60405180910390f35b34801561038e57600080fd5b506103a960048036038101906103a491906125db565b611a64565b005b3480156103b757600080fd5b506103d260048036038101906103cd9190612152565b611cbb565b6040516103df9190612723565b60405180910390f35b3480156103f457600080fd5b5061040f600480360381019061040a9190612152565b611e31565b005b60006001600083815260200190815260200160002090508060010160009054906101000a900473ffffffffffffffffffffffffffffffffffffffff1673ffffffffffffffffffffffffffffffffffffffff163373ffffffffffffffffffffffffffffffffffffffff16146104ba576040517f08c379a00000000000000000000000000000000000000000000000000000000081526004016104b19061278b565b60405180910390fd5b8060090160019054906101000a900460ff1661050b576040517f08c379a0000000000000000000000000000000000000000000000000000000008152600401610502906127f7565b60405180910390fd5b6003600481111561051f5761051e6121ea565b5b8160090160009054906101000a900460ff166004811115610543576105426121ea565b5b14610583576040517f08c379a000000000000000000000000000000000000000000000000000000000815260040161057a90612863565b60405180910390fd5b600260003373ffffffffffffffffffffffffffffffffffffffff1673ffffffffffffffffffffffffffffffffffffffff168152602001908152602001600020600083815260200190815260200160002060009054906101000a900460ff1615610621576040517f08c379a0000000000000000000000000000000000000000000000000000000008152600401610618906128cf565b60405180910390fd5b60008160010160009054906101000a900473ffffffffffffffffffffffffffffffffffffffff1673ffffffffffffffffffffffffffffffffffffffff16826008015460405161066f90612920565b60006040518083038185875af1925050503d80600081146106ac576040519150601f19603f3d011682016040523d82523d6000602084013e6106b1565b606091505b50509050806106f5576040517f08c379a00000000000000000000000000000000000000000000000000000000081526004016106ec90612981565b60405180910390fd5b6001600260003373ffffffffffffffffffffffffffffffffffffffff1673ffffffffffffffffffffffffffffffffffffffff168152602001908152602001600020600085815260200190815260200160002060006101000a81548160ff0219169083151502179055508160010160009054906101000a900473ffffffffffffffffffffffffffffffffffffffff1673ffffffffffffffffffffffffffffffffffffffff167fbce18845c6facca94da2d86fe39bfad50c9723bf560ede49f3319c6676ce21e9846040516107c8919061218e565b60405180910390a2505050565b60008054905090565b60006001600083815260200190815260200160002090508060020160009054906101000a900473ffffffffffffffffffffffffffffffffffffffff1673ffffffffffffffffffffffffffffffffffffffff163373ffffffffffffffffffffffffffffffffffffffff1614610887576040517f08c379a000000000000000000000000000000000000000000000000000000000815260040161087e906129ed565b60405180910390fd5b8060090160019054906101000a900460ff16156108d9576040517f08c379a00000000000000000000000000000000000000000000000000000000081526004016108d090612a59565b60405180910390fd5b6004808111156108ec576108eb6121ea565b5b8160090160009054906101000a900460ff1660048111156109105761090f6121ea565b5b03610950576040517f08c379a000000000000000000000000000000000000000000000000000000000815260040161094790612aeb565b60405180910390fd5b80600801543414610996576040517f08c379a000000000000000000000000000000000000000000000000000000000815260040161098d90612b57565b60405180910390fd5b60018160090160016101000a81548160ff0219169083151502179055508060010160009054906101000a900473ffffffffffffffffffffffffffffffffffffffff1673ffffffffffffffffffffffffffffffffffffffff163373ffffffffffffffffffffffffffffffffffffffff167f2da557aa858f1d862fd5624a2fb741a7a4d8b1f7fe9a833be5bc78e2403104c2848460080154604051610a3a929190612b77565b60405180910390a35050565b60016020528060005260406000206000915090508060000154908060010160009054906101000a900473ffffffffffffffffffffffffffffffffffffffff16908060020160009054906101000a900473ffffffffffffffffffffffffffffffffffffffff16908060030154908060040154908060050154908060060154908060070154908060080154908060090160009054906101000a900460ff16908060090160019054906101000a900460ff1690508b565b60026020528160005260406000206020528060005260406000206000915091509054906101000a900460ff1681565b60606000805467ffffffffffffffff811115610b4857610b47612ba0565b5b604051908082528060200260200182016040528015610b8157816020015b610b6e612000565b815260200190600190039081610b665790505b5090506000600190505b6000548111610d38576001600082815260200190815260200160002060405180610160016040529081600082015481526020016001820160009054906101000a900473ffffffffffffffffffffffffffffffffffffffff1673ffffffffffffffffffffffffffffffffffffffff1673ffffffffffffffffffffffffffffffffffffffff1681526020016002820160009054906101000a900473ffffffffffffffffffffffffffffffffffffffff1673ffffffffffffffffffffffffffffffffffffffff1673ffffffffffffffffffffffffffffffffffffffff1681526020016003820154815260200160048201548152602001600582015481526020016006820154815260200160078201548152602001600882015481526020016009820160009054906101000a900460ff166004811115610cca57610cc96121ea565b5b6004811115610cdc57610cdb6121ea565b5b81526020016009820160019054906101000a900460ff16151515158152505082600183610d099190612bfe565b81518110610d1a57610d19612c32565b5b60200260200101819052508080610d3090612c61565b915050610b8b565b508091505090565b60006001600083815260200190815260200160002090508060010160009054906101000a900473ffffffffffffffffffffffffffffffffffffffff1673ffffffffffffffffffffffffffffffffffffffff163373ffffffffffffffffffffffffffffffffffffffff1614610de9576040517f08c379a0000000000000000000000000000000000000000000000000000000008152600401610de090612cf5565b60405180910390fd5b60006004811115610dfd57610dfc6121ea565b5b8160090160009054906101000a900460ff166004811115610e2157610e206121ea565b5b14610e61576040517f08c379a0000000000000000000000000000000000000000000000000000000008152600401610e5890612d61565b60405180910390fd5b60018160090160006101000a81548160ff02191690836004811115610e8957610e886121ea565b5b02179055504281600401819055503373ffffffffffffffffffffffffffffffffffffffff167f4ffb943419f0ed1d5ae5f1c3736da262160d275621a7c6249efd2922430102d08342604051610edf929190612b77565b60405180910390a25050565b6060600080600190505b6000548111610f89573373ffffffffffffffffffffffffffffffffffffffff166001600083815260200190815260200160002060010160009054906101000a900473ffffffffffffffffffffffffffffffffffffffff1673ffffffffffffffffffffffffffffffffffffffff1603610f76578180610f7290612c61565b9250505b8080610f8190612c61565b915050610ef5565b5060008167ffffffffffffffff811115610fa657610fa5612ba0565b5b604051908082528060200260200182016040528015610fdf57816020015b610fcc612000565b815260200190600190039081610fc45790505b509050600080600190505b6000548111611203573373ffffffffffffffffffffffffffffffffffffffff166001600083815260200190815260200160002060010160009054906101000a900473ffffffffffffffffffffffffffffffffffffffff1673ffffffffffffffffffffffffffffffffffffffff16036111f0576001600082815260200190815260200160002060405180610160016040529081600082015481526020016001820160009054906101000a900473ffffffffffffffffffffffffffffffffffffffff1673ffffffffffffffffffffffffffffffffffffffff1673ffffffffffffffffffffffffffffffffffffffff1681526020016002820160009054906101000a900473ffffffffffffffffffffffffffffffffffffffff1673ffffffffffffffffffffffffffffffffffffffff1673ffffffffffffffffffffffffffffffffffffffff1681526020016003820154815260200160048201548152602001600582015481526020016006820154815260200160078201548152602001600882015481526020016009820160009054906101000a900460ff166004811115611192576111916121ea565b5b60048111156111a4576111a36121ea565b5b81526020016009820160019054906101000a900460ff1615151515815250508383815181106111d6576111d5612c32565b5b602002602001018190525081806111ec90612c61565b9250505b80806111fb90612c61565b915050610fea565b5081935050505090565b60006001600083815260200190815260200160002090508060020160009054906101000a900473ffffffffffffffffffffffffffffffffffffffff1673ffffffffffffffffffffffffffffffffffffffff163373ffffffffffffffffffffffffffffffffffffffff1614806112d157508060010160009054906101000a900473ffffffffffffffffffffffffffffffffffffffff1673ffffffffffffffffffffffffffffffffffffffff163373ffffffffffffffffffffffffffffffffffffffff16145b611310576040517f08c379a000000000000000000000000000000000000000000000000000000000815260040161130790612df3565b60405180910390fd5b60006004811115611324576113236121ea565b5b8160090160009054906101000a900460ff166004811115611348576113476121ea565b5b1480611389575060016004811115611363576113626121ea565b5b8160090160009054906101000a900460ff166004811115611387576113866121ea565b5b145b806113c95750600260048111156113a3576113a26121ea565b5b8160090160009054906101000a900460ff1660048111156113c7576113c66121ea565b5b145b611408576040517f08c379a00000000000000000000000000000000000000000000000000000000081526004016113ff90612e5f565b60405180910390fd5b8060090160019054906101000a900460ff16156115125760008160020160009054906101000a900473ffffffffffffffffffffffffffffffffffffffff1673ffffffffffffffffffffffffffffffffffffffff16826008015460405161146d90612920565b60006040518083038185875af1925050503d80600081146114aa576040519150601f19603f3d011682016040523d82523d6000602084013e6114af565b606091505b50509050806114f3576040517f08c379a00000000000000000000000000000000000000000000000000000000081526004016114ea90612ecb565b60405180910390fd5b60008260090160016101000a81548160ff021916908315150217905550505b60048160090160006101000a81548160ff0219169083600481111561153a576115396121ea565b5b02179055503373ffffffffffffffffffffffffffffffffffffffff167fd8aa95458d124cbb2f87090b45a5c889f149cbf1ad06d0ea5b75ce461b0e4e6783604051611585919061218e565b60405180910390a25050565b60006001600083815260200190815260200160002090508060010160009054906101000a900473ffffffffffffffffffffffffffffffffffffffff1673ffffffffffffffffffffffffffffffffffffffff163373ffffffffffffffffffffffffffffffffffffffff161461163a576040517f08c379a000000000000000000000000000000000000000000000000000000000815260040161163190612f37565b60405180910390fd5b6001600481111561164e5761164d6121ea565b5b8160090160009054906101000a900460ff166004811115611672576116716121ea565b5b146116b2576040517f08c379a00000000000000000000000000000000000000000000000000000000081526004016116a990612fa3565b60405180910390fd5b60028160090160006101000a81548160ff021916908360048111156116da576116d96121ea565b5b02179055504281600501819055503373ffffffffffffffffffffffffffffffffffffffff167f149a9746d28626966a6088c756984494f03d721e36f134b9df447d661c30ceff8342604051611730929190612b77565b60405180910390a25050565b60005481565b6060600080600190505b60005481116117e0573373ffffffffffffffffffffffffffffffffffffffff166001600083815260200190815260200160002060020160009054906101000a900473ffffffffffffffffffffffffffffffffffffffff1673ffffffffffffffffffffffffffffffffffffffff16036117cd5781806117c990612c61565b9250505b80806117d890612c61565b91505061174c565b5060008167ffffffffffffffff8111156117fd576117fc612ba0565b5b60405190808252806020026020018201604052801561183657816020015b611823612000565b81526020019060019003908161181b5790505b509050600080600190505b6000548111611a5a573373ffffffffffffffffffffffffffffffffffffffff166001600083815260200190815260200160002060020160009054906101000a900473ffffffffffffffffffffffffffffffffffffffff1673ffffffffffffffffffffffffffffffffffffffff1603611a47576001600082815260200190815260200160002060405180610160016040529081600082015481526020016001820160009054906101000a900473ffffffffffffffffffffffffffffffffffffffff1673ffffffffffffffffffffffffffffffffffffffff1673ffffffffffffffffffffffffffffffffffffffff1681526020016002820160009054906101000a900473ffffffffffffffffffffffffffffffffffffffff1673ffffffffffffffffffffffffffffffffffffffff1673ffffffffffffffffffffffffffffffffffffffff1681526020016003820154815260200160048201548152602001600582015481526020016006820154815260200160078201548152602001600882015481526020016009820160009054906101000a900460ff1660048111156119e9576119e86121ea565b5b60048111156119fb576119fa6121ea565b5b81526020016009820160019054906101000a900460ff161515151581525050838381518110611a2d57611a2c612c32565b5b60200260200101819052508180611a4390612c61565b9250505b8080611a5290612c61565b915050611841565b5081935050505090565b600080815480929190611a7690612c61565b919050555060405180610160016040528060005481526020013373ffffffffffffffffffffffffffffffffffffffff1681526020018573ffffffffffffffffffffffffffffffffffffffff16815260200184815260200160008152602001600081526020016000815260200183815260200182815260200160006004811115611b0257611b016121ea565b5b81526020016000151581525060016000805481526020019081526020016000206000820151816000015560208201518160010160006101000a81548173ffffffffffffffffffffffffffffffffffffffff021916908373ffffffffffffffffffffffffffffffffffffffff16021790555060408201518160020160006101000a81548173ffffffffffffffffffffffffffffffffffffffff021916908373ffffffffffffffffffffffffffffffffffffffff160217905550606082015181600301556080820151816004015560a0820151816005015560c0820151816006015560e0820151816007015561010082015181600801556101208201518160090160006101000a81548160ff02191690836004811115611c2357611c226121ea565b5b02179055506101408201518160090160016101000a81548160ff0219169083151502179055509050508373ffffffffffffffffffffffffffffffffffffffff163373ffffffffffffffffffffffffffffffffffffffff167f7af99d65cb596cfdfc2aba99e0a28ed52bf550fd06066ef28d334007d9e8e22360005484604051611cad929190612b77565b60405180910390a350505050565b611cc3612000565b6001600083815260200190815260200160002060405180610160016040529081600082015481526020016001820160009054906101000a900473ffffffffffffffffffffffffffffffffffffffff1673ffffffffffffffffffffffffffffffffffffffff1673ffffffffffffffffffffffffffffffffffffffff1681526020016002820160009054906101000a900473ffffffffffffffffffffffffffffffffffffffff1673ffffffffffffffffffffffffffffffffffffffff1673ffffffffffffffffffffffffffffffffffffffff1681526020016003820154815260200160048201548152602001600582015481526020016006820154815260200160078201548152602001600882015481526020016009820160009054906101000a900460ff166004811115611df957611df86121ea565b5b6004811115611e0b57611e0a6121ea565b5b81526020016009820160019054906101000a900460ff1615151515815250509050919050565b60006001600083815260200190815260200160002090508060010160009054906101000a900473ffffffffffffffffffffffffffffffffffffffff1673ffffffffffffffffffffffffffffffffffffffff163373ffffffffffffffffffffffffffffffffffffffff1614611eda576040517f08c379a0000000000000000000000000000000000000000000000000000000008152600401611ed19061300f565b60405180910390fd5b60026004811115611eee57611eed6121ea565b5b8160090160009054906101000a900460ff166004811115611f1257611f116121ea565b5b14611f52576040517f08c379a0000000000000000000000000000000000000000000000000000000008152600401611f499061307b565b60405180910390fd5b60038160090160006101000a81548160ff02191690836004811115611f7a57611f796121ea565b5b02179055504281600601819055508060020160009054906101000a900473ffffffffffffffffffffffffffffffffffffffff1673ffffffffffffffffffffffffffffffffffffffff167f0bde60694aa600ce1f3c57fa1638fb824512cb0680334f137792b9a498ce70828342604051611ff4929190612b77565b60405180910390a25050565b60405180610160016040528060008152602001600073ffffffffffffffffffffffffffffffffffffffff168152602001600073ffffffffffffffffffffffffffffffffffffffff1681526020016000815260200160008152602001600081526020016000815260200160008152602001600081526020016000600481111561208b5761208a6121ea565b5b81526020016000151581525090565b600082825260208201905092915050565b7f53656e642066756e64732076696120706179536869706d656e74282900000000600082015250565b60006120e1601c8361209a565b91506120ec826120ab565b602082019050919050565b60006020820190508181036000830152612110816120d4565b9050919050565b600080fd5b6000819050919050565b61212f8161211c565b811461213a57600080fd5b50565b60008135905061214c81612126565b92915050565b60006020828403121561216857612167612117565b5b60006121768482850161213d565b91505092915050565b6121888161211c565b82525050565b60006020820190506121a3600083018461217f565b92915050565b600073ffffffffffffffffffffffffffffffffffffffff82169050919050565b60006121d4826121a9565b9050919050565b6121e4816121c9565b82525050565b7f4e487b7100000000000000000000000000000000000000000000000000000000600052602160045260246000fd5b6005811061222a576122296121ea565b5b50565b600081905061223b82612219565b919050565b600061224b8261222d565b9050919050565b61225b81612240565b82525050565b60008115159050919050565b61227681612261565b82525050565b600061016082019050612292600083018e61217f565b61229f602083018d6121db565b6122ac604083018c6121db565b6122b9606083018b61217f565b6122c6608083018a61217f565b6122d360a083018961217f565b6122e060c083018861217f565b6122ed60e083018761217f565b6122fb61010083018661217f565b612309610120830185612252565b61231761014083018461226d565b9c9b505050505050505050505050565b6000612332826121a9565b9050919050565b61234281612327565b811461234d57600080fd5b50565b60008135905061235f81612339565b92915050565b6000806040838503121561237c5761237b612117565b5b600061238a85828601612350565b925050602061239b8582860161213d565b9150509250929050565b60006020820190506123ba600083018461226d565b92915050565b600081519050919050565b600082825260208201905092915050565b6000819050602082019050919050565b6123f58161211c565b82525050565b612404816121c9565b82525050565b61241381612240565b82525050565b61242281612261565b82525050565b6101608201600082015161243f60008501826123ec565b50602082015161245260208501826123fb565b50604082015161246560408501826123fb565b50606082015161247860608501826123ec565b50608082015161248b60808501826123ec565b5060a082015161249e60a08501826123ec565b5060c08201516124b160c08501826123ec565b5060e08201516124c460e08501826123ec565b506101008201516124d96101008501826123ec565b506101208201516124ee61012085018261240a565b50610140820151612503610140850182612419565b50505050565b60006125158383612428565b6101608301905092915050565b6000602082019050919050565b600061253a826123c0565b61254481856123cb565b935061254f836123dc565b8060005b838110156125805781516125678882612509565b975061257283612522565b925050600181019050612553565b5085935050505092915050565b600060208201905081810360008301526125a7818461252f565b905092915050565b6125b8816121c9565b81146125c357600080fd5b50565b6000813590506125d5816125af565b92915050565b600080600080608085870312156125f5576125f4612117565b5b6000612603878288016125c6565b94505060206126148782880161213d565b93505060406126258782880161213d565b92505060606126368782880161213d565b91505092959194509250565b6101608201600082015161265960008501826123ec565b50602082015161266c60208501826123fb565b50604082015161267f60408501826123fb565b50606082015161269260608501826123ec565b5060808201516126a560808501826123ec565b5060a08201516126b860a08501826123ec565b5060c08201516126cb60c08501826123ec565b5060e08201516126de60e08501826123ec565b506101008201516126f36101008501826123ec565b5061012082015161270861012085018261240a565b5061014082015161271d610140850182612419565b50505050565b6000610160820190506127396000830184612642565b92915050565b7f4f6e6c792073656c6c65722063616e2077697468647261772021000000000000600082015250565b6000612775601a8361209a565b91506127808261273f565b602082019050919050565b600060208201905081810360008301526127a481612768565b9050919050565b7f4e6f742070616964207965742021000000000000000000000000000000000000600082015250565b60006127e1600e8361209a565b91506127ec826127ab565b602082019050919050565b60006020820190508181036000830152612810816127d4565b9050919050565b7f536869706d656e74206e6f742064656c69766572656420210000000000000000600082015250565b600061284d60188361209a565b915061285882612817565b602082019050919050565b6000602082019050818103600083015261287c81612840565b9050919050565b7f416c72656164792077697468647261776e202100000000000000000000000000600082015250565b60006128b960138361209a565b91506128c482612883565b602082019050919050565b600060208201905081810360008301526128e8816128ac565b9050919050565b600081905092915050565b50565b600061290a6000836128ef565b9150612915826128fa565b600082019050919050565b600061292b826128fd565b9150819050919050565b7f5769746864726177616c206661696c6564202100000000000000000000000000600082015250565b600061296b60138361209a565b915061297682612935565b602082019050919050565b6000602082019050818103600083015261299a8161295e565b9050919050565b7f4f6e6c792062757965722063616e207061792021000000000000000000000000600082015250565b60006129d760148361209a565b91506129e2826129a1565b602082019050919050565b60006020820190508181036000830152612a06816129ca565b9050919050565b7f416c726561647920706169642021000000000000000000000000000000000000600082015250565b6000612a43600e8361209a565b9150612a4e82612a0d565b602082019050919050565b60006020820190508181036000830152612a7281612a36565b9050919050565b7f43616e6e6e6f742070617920666f722063616e63656c6c656420736869706d6560008201527f6e74202100000000000000000000000000000000000000000000000000000000602082015250565b6000612ad560248361209a565b9150612ae082612a79565b604082019050919050565b60006020820190508181036000830152612b0481612ac8565b9050919050565b7f4d7573742073656e6420657861637420736869706d656e742070726963652021600082015250565b6000612b4160208361209a565b9150612b4c82612b0b565b602082019050919050565b60006020820190508181036000830152612b7081612b34565b9050919050565b6000604082019050612b8c600083018561217f565b612b99602083018461217f565b9392505050565b7f4e487b7100000000000000000000000000000000000000000000000000000000600052604160045260246000fd5b7f4e487b7100000000000000000000000000000000000000000000000000000000600052601160045260246000fd5b6000612c098261211c565b9150612c148361211c565b9250828203905081811115612c2c57612c2b612bcf565b5b92915050565b7f4e487b7100000000000000000000000000000000000000000000000000000000600052603260045260246000fd5b6000612c6c8261211c565b91507fffffffffffffffffffffffffffffffffffffffffffffffffffffffffffffffff8203612c9e57612c9d612bcf565b5b600182019050919050565b7f4f6e6c792073656c6c65722063616e2064697370617463682021000000000000600082015250565b6000612cdf601a8361209a565b9150612cea82612ca9565b602082019050919050565b60006020820190508181036000830152612d0e81612cd2565b9050919050565b7f536869706d656e74206d75737420626520435245415445442021000000000000600082015250565b6000612d4b601a8361209a565b9150612d5682612d15565b602082019050919050565b60006020820190508181036000830152612d7a81612d3e565b9050919050565b7f4f6e6c79206275796572206f722073656c6c65722063616e2063616e63656c2060008201527f2100000000000000000000000000000000000000000000000000000000000000602082015250565b6000612ddd60218361209a565b9150612de882612d81565b604082019050919050565b60006020820190508181036000830152612e0c81612dd0565b9050919050565b7f43616e6e6f742063616e63656c2061667465722064656c697665727920210000600082015250565b6000612e49601e8361209a565b9150612e5482612e13565b602082019050919050565b60006020820190508181036000830152612e7881612e3c565b9050919050565b7f526566756e64206661696c656420210000000000000000000000000000000000600082015250565b6000612eb5600f8361209a565b9150612ec082612e7f565b602082019050919050565b60006020820190508181036000830152612ee481612ea8565b9050919050565b7f4f6e6c792073656c6c65722063616e2075706461746520210000000000000000600082015250565b6000612f2160188361209a565b9150612f2c82612eeb565b602082019050919050565b60006020820190508181036000830152612f5081612f14565b9050919050565b7f536869706d656e74206d75737420626520444953504154434845442021000000600082015250565b6000612f8d601d8361209a565b9150612f9882612f57565b602082019050919050565b60006020820190508181036000830152612fbc81612f80565b9050919050565b7f4f6e6c792073656c6c65722063616e20636f6d706c6574652021000000000000600082015250565b6000612ff9601a8361209a565b915061300482612fc3565b602082019050919050565b6000602082019050818103600083015261302881612fec565b9050919050565b7f536869706d656e74206d757374206265204f4e5f524f55544520210000000000600082015250565b6000613065601b8361209a565b91506130708261302f565b602082019050919050565b6000602082019050818103600083015261309481613058565b905091905056fea26469706673582212202ec67ce7faee04464040a8a83d694b9e37106449ed2bb90739ba1cfca2f5c25564736f6c634300081c0033",
  "linkReferences": {},
  "deployedLinkReferences": {}
}